:020000040800F2
:1000000030320020F90200081B1E0008131E0008F1
:10001000171E00080D0B0008392200080000000020
:10002000000000000000000000000000390200088D
:10003000110B000800000000950200081D1E0008BA
:100040001D0300081D0300081D0300081D03000810
:100050001D0300081D0300081D0300081D03000800
:100060001D0300081D0300081D0300081D030008F0
:100070001D0300081D0300081D0300081D030008E0
:100080001D0300081D0300081D0300081D030008D0
:100090001D0300081D0300081D0300081D030008C0
:1000A0001D0300081D0300081D0300081D030008B0
:1000B0001D030008451E00081D0300081D0300085D
:1000C0001D0300081D0300081D0300081D03000890
:1000D0001D030008952100081D0300081D030008EA
:1000E0001D0300081D0300081D0300081D03000870
:1000F0001D0300081D0300081D0300081D03000860
:100100001D0300081D0300081D0300081D0300084F
:100110001D0300081D0300081D0300081D0300083F
:100120001D0300081D0300081D0300081D0300082F
:100130001D0300081D0300081D0300081D0300081F
:100140001D0300081D0300081D0300081D0300080F
:100150001D0300081D0300081D0300081D030008FF
:100160001D0300081D0300081D0300081D030008EF
:100170001D0300081D0300081D0300080000000007
:100180001D0300081D03000800F002F800F044F809
:100190000AA090E8000C82448344AAF10107DA45E2
:1001A00001D100F039F8AFF2090EBAE80F0013F0F0
:1001B000010F18BFFB1A43F001031847384900002C
:1001C00058490000103A24BF78C878C1FAD85207BD
:1001D00024BF30C830C144BF04680C6070470000C1
:1001E0000023002400250026103A28BF78C1FBD840
:1001F000520728BF30C148BF0B607047642900F028
:100200004F81732900F03283002070471FB504F03E
:1002100057FC1FBD10B510BD00F09AFB1146FFF74B
:10022000F5FF02F059FA00F0B8FB03B4FFF7F2FF54
:1002300003BC02F026F800002C4B19680868B0E8EF
:10024000F04F80F30988BFF36F8F4FF0000080F309
:10025000118870470000000008480068006880F3BB
:1002600008884FF0000080F3148862B661B6BFF3CF
:100270004F8FBFF36F8F00DF00BF00BF08ED00E0BE
:10028000DFF80C00016841F470010160704700BFA5
:1002900088ED00E0EFF30980BFF36F8F134B1A680E
:1002A0001EF0100F08BF20ED108A20E9F04F1060FB
:1002B00009B44FF0500080F31188BFF34F8FBFF3A4
:1002C0006F8F03F05BFC4FF0000080F3118809BCD6
:1002D00019680868B0E8F04F1EF0100F08BFB0ECC6
:1002E000108A80F30988BFF36F8F704730000020B9
:1002F000EFF30580704700000C48016841F470017D
:1003000001600B4880470B480047FEE7FEE7FEE729
:10031000FEE7FEE7FEE7FEE7FEE7FEE7FEE700009A
:1003200005480649044A064B7047000088ED00E086
:10033000311E000889010008302E002030320020D4
:10034000302E0020704753EA020C00F069802DE93E
:10035000F04B4FF00006002B1FBFB3FA83F503FAF2
:1003600005F424FA05F65E4012BF1643B2FA82F590
:1003700002FA05F4C5F120051EBF22FA05FC44EA85
:100380000C04203556EA044C4FEA144418BF641C90
:100390004FF000084FF00009904271EB030C39D385
:1003A000002919BFB1FA81F701FA07F6B0FA80F710
:1003B00000FA07F6C7F120071EBF20FA07FC46EA3D
:1003C0000C062037B6FBF4FCA7EB0507103F07F03F
:1003D0001F0BCBF120060CFA0BFB2CFA06F644BFE0
:1003E000B3460026202FA4BF5E464FF0000B5BEA09
:1003F000060C08BF4FF0010B19EB0B09ABFB027C9D
:1004000048EB0608C01B06FB02CC0BFB03CC71EBD0
:100410000C01C1E70B46024641464846BDE8F08B59
:1004200013B54FF000004FF00001AFF30080BDE8BE
:100430001C4070470FB4044910B503AA029800F09D
:1004400019FA10BC5DF814FB1C00002070B50C46B6
:100450000546012A05D02878800600D5EA690023E0
:1004600002E0012305E05B1C934202D2E05C00281D
:10047000F9D1A869E618C01AA861286A1844286248
:100480002846AFF3008004E0D5E9012114F8010B00
:100490009047B442F8D32846AFF3008070BD000007
:1004A0002DE9F0410646002410687529314616A54D
:1004B00010D0AFF30080002802DA404213A507E015
:1004C00031688A0701D512A502E0490704D511A5B4
:1004D000012401E0AFF3008000210A2206F1240785
:1004E00009E0B0FBF2FCB0FBF2F302FB1C00303081
:1004F00078541846491C0028F3D123462A46304632
:10050000BDE8F04100F02EB9000000002D00000011
:100510002B000000200000002DE9F05F8946044612
:100520004FF0000ADFF824B1FB44C0F820A02046B9
:10053000E168884700287DD0252806D0D4E901212C
:100540009047206A401C2062F1E700255F46204664
:10055000E16888472028064607DB312E05D2B81906
:1005600010F8200C08B10543F1E7A80701D525F0E4
:100570000405C4F81CA00027C4F818A02A2E09D02E
:10058000304601F077FE38B304EB8708303EC8F8F8
:10059000186019E059F8041B204604EB87029161AA
:1005A000E1688847012F064618D1E069002820DA63
:1005B00025F020051DE0D8F8180000EB800006EBC0
:1005C00040003038C8F818002046E16888470646E1
:1005D00001F050FE0028EED1012F0AD02E2E08D1B6
:1005E0002046E16888477F1C0646022F45F020051B
:1005F000C4DBA069002803DA404245F00105A06190
:10060000E80701D025F01005A6B1A6F14100192890
:1006100002D8203645F400654A463146204625601A
:100620004D46FFF7EBFD60B1012807D0ED1D25F029
:10063000070000E007E000F1080978E705F1040988
:1006400075E730467AE7206ABDE8F09FB6450000BE
:1006500030B505460B462A4613F8014B12F8010B3C
:1006600008B1A042F8D01CB1002802D06D1CF1E7FF
:10067000284630BD032A40F2308010F0030C00F011
:10068000158011F8013BBCF1020F624498BF11F8CC
:1006900001CB00F8013B38BF11F8013BA2F1040285
:1006A00098BF00F801CB38BF00F8013B11F00303FD
:1006B00000F0F280083AC0F0088051F8043B083A94
:1006C00051F804CBA0E80810F5E7121D5CBF51F803
:1006D000043B40F8043BAFF30080D20724BF11F87D
:1006E000013B11F801CB48BF11F8012B24BF00F8E2
:1006F000013B00F801CB48BF00F8012B704702F026
:10070000FF0343EA032242EA024200F0F9B84FF045
:10071000000200B5134694469646203922BFA0E851
:100720000C50A0E80C50B1F12001BFF4F7AF09075D
:1007300028BFA0E80C5048BF0CC05DF804EB89004E
:1007400028BF40F8042B08BF704748BF20F8022B91
:1007500011F0804F18BF00F8012B704770477047A9
:10076000704770472DE9F0470D469946924604467A
:1007700000F124080168880604D5E06921F0100121
:10078000216000E00120A84201DD471B00E00027B6
:10079000A1697A1902EB0900081AA0612078C00645
:1007A00002D42046AFF30080002608E0D4E90121FE
:1007B0001AF806009047206A401C761C20624E45BD
:1007C000F4DB2078C0060AD52046AFF3008006E0AF
:1007D000D4E9012130209047206A401C2062381E55
:1007E000A7F10107F4DC07E0D4E9012118F80500BE
:1007F0009047206A401C2062281EA5F10105F3DC09
:100800002046AFF300802078000602D50220BDE824
:10081000F0870120FBE7000001694A1C02610878AB
:10082000704700B58FB0CDE9013100210591054930
:100830007944CDE9031011466846FFF76DFE0FB00D
:1008400000BD0000E5FFFFFF10B5436913B1AFF332
:10085000008001E0FFF7FAFD012010BD127800F1E1
:1008600024010A7000224A700122EDE711684FF05E
:10087000FF32E9E7074B70B50D467B44FFF7D1FF28
:100880000446284600F05CF810B14FF0FF3070BD10
:10089000204670BD371D000010B5203AC0F00B8017
:1008A000B1E81850203AA0E81850B1E81850A0E874
:1008B0001850BFF4F5AF5FEA027C24BFB1E81850CE
:1008C000A0E8185044BF18C918C0BDE810405FEA3E
:1008D000827C24BF51F8043B40F8043B08BF7047BA
:1008E000D20728BF31F8023B48BF11F8012B28BFBF
:1008F00020F8023B48BF00F8012B70474FF0000280
:100900000429C0F0128010F0030C3FF402AFCCF1C8
:10091000040CBCF1020F18BF00F8012BA8BF20F88F
:10092000022BA1EB0C01FFF7F4BE5FEAC17C24BFF0
:1009300000F8012B00F8012B48BF00F8012B70478D
:10094000007B00F08000704700487047CC2D0020ED
:100950007546FFF7F9FFAE4605006946534620F09D
:100960000700854618B020B5FFF7DAFCBDE8204047
:100970004FF000064FF000074FF000084FF0000B5B
:1009800021F00701AC46ACE8C009ACE8C009ACE80E
:10099000C009ACE8C0098D46704710B50446AFF3F6
:1009A00000802046BDE81040FFF73FBC55494A682B
:1009B00022F440324A604A6843681A434A60026837
:1009C000526822F4807203685A60026853680269B0
:1009D00043EA022203685A600268526822F04072B9
:1009E00003685A600268526883681A4303685A6051
:1009F0000268926822F4006203689A600268926852
:100A0000C3681A4303689A603F4B826A9A4218D0BF
:100A10000268926822F0706203689A6002689268C5
:100A2000836A1A4303689A600268926822F040520F
:100A300003689A6002689268C36A1A4303689A60FE
:100A40000BE00268926822F0706203689A600268A4
:100A5000926822F0405203689A600268926822F01D
:100A6000020203689A6002689368027E43EA4202C7
:100A700003689A602022125CA2B10268526842F4B4
:100A8000006203685A600268526822F46042036898
:100A90005A6002685368426A521E43EA423203684F
:100AA0005A6005E00268526822F4006203685A60E6
:100AB0000268D26A22F470020368DA620268D36ABA
:100AC000828B521E43EA02520368DA62026892681D
:100AD00022F4007203689A600268936890F83020EC
:100AE00043EA422203689A600268926822F48062B4
:100AF00003689A6002689368426943EA8222036845
:100B00009A607047002301400100000F00BFFEE71C
:100B10007047000038B502460020009000BF92F8F0
:100B20003C00012801D1022038BD012082F83C00A0
:100B300000BF0868092816D91068C0680C780A3CFC
:100B400004EB44050724AC40A0431468E0600C7833
:100B50000A3C04EB44048868A0401468E46820431D
:100B60001468E06013E0106800690C7804EB440539
:100B70000724AC40A043146820610C7804EB4404C3
:100B80008868A0401468246920431468206148687C
:100B9000072817D21068406B0C79641E04EB84059B
:100BA0001F24AC40A04314686063088880B20C79AD
:100BB000641E04EB8404A0401468646B2043146832
:100BC000606331E048680D2817D21068006B0C791B
:100BD000E41F04EB84051F24AC40A0431468206389
:100BE000088880B20C79E41F04EB8404A0401468E8
:100BF000246B20431468206316E01068C06A0C79E7
:100C00000D3C04EB84051F24AC40A0431468E06253
:100C1000088880B20C790D3C04EB8404A040146871
:100C2000E46A20431468E062194B1A4C1068A04231
:100C300006D10868122803D1586840F48000586033
:100C4000144C1068A0421CD10868102802D0086813
:100C5000112816D1586840F4000058600868102820
:100C60000FD10D4800680D4CB0FBF4F000EB800094
:100C70004000009002E00098401E0090009800287C
:100C8000F9D100BF002082F83C0000BF00BF4BE755
:100C900000230140002001401400002040420F00CA
:100CA00001460868C06C704770B5044600250CB951
:100CB000012070BD1549A06A884200D000BF206C99
:100CC00030B9204600F024F80020606484F83C002D
:100CD000206C00F0100088B9206C20F4885040F09F
:100CE000020020642046FFF761FE00206064206C53
:100CF00020F0020040F00100206400E0012500BF68
:100D0000002084F83C0000BF2846D2E70100000F15
:100D100010B586B004461B492068884230D100BF18
:100D200000BF002000901848006840F48070164909
:100D300008600846006800F48070009000BF00BFA3
:100D400000BF00BF00BF002000900F4814380068AB
:100D500040F001000C49143908600846006800F0B2
:100D60000100009000BF00BF00BF202001900320C1
:100D700002900120039001A9044800F017F900BF78
:100D800006B010BD0020014044380240000002407F
:100D900070B504460D4600262068806800F4806027
:100DA000B0F5806F11D12068806800F48070B0F5D4
:100DB000807F0AD1206C40F02000206400BF00201A
:100DC00084F83C0000BF012070BD00F00FFA064619
:100DD00018E0681CB0B125B100F008FA801BA842E9
:100DE00010D92068006800F0020002280AD0206CA8
:100DF00040F00400206400BF002084F83C0000BFE5
:100E00000320E1E72068006800F002000228E0D13A
:100E10006FF0120021680860206C40F400702064BC
:100E20002068806800F04050B8B9207EA8B92068DA
:100E3000C06A00F4700020B12068806800F480600F
:100E400058B9206C20F480702064206C00F480502D
:100E500018B9206C40F0010020640020B4E70000C5
:100E600008B501460020009000BF91F83C00012821
:100E700001D1022008BD012081F83C0000BF0868B4
:100E8000806800F00100A0B90868806840F00100A7
:100E90000B6898603F4800683F4BB0FBF3F000EBF5
:100EA0004000009002E00098401E0090009800284A
:100EB000F9D10868806800F00100002860D0086C53
:100EC00040F20163984340F4807008640868406809
:100ED00000F4806028B1086C20F4005040F4805089
:100EE0000864086C00F48050B0F5805F04D1486C51
:100EF00020F00600486401E00020486400BF0020A4
:100F000081F83C0000BF254A6FF022000B68186092
:100F1000506800F01F0018BB214B0868984213D09E
:100F2000204B0868984204D1101D006800F01F0093
:100F300050B11D4B086898422AD11848001D00681E
:100F400000F01F00102823D20868806800F040508D
:100F5000F0B90868806840F080400B68986017E03E
:100F60000F4B0868984213D10868806800F0405021
:100F700070B90868806840F080400B68986007E0AE
:100F8000086C40F010000864486C40F001004864B0
:100F900000206FE71400002040420F0000230140B2
:100FA000002001400021014000220140F8B5024626
:100FB0000B460025002400200021DEE0012606FA71
:100FC00001F51E6806EA0504AC4275D11E7906F0EB
:100FD0000306012E04D01E7906F00306022E13D15B
:100FE00090684F000326BE40B0434F00DE68BE400D
:100FF00030439060506801268E40B0431E79C6F39E
:1010000000168E40304350601E7906F00306032E12
:1010100009D0D0684F000326BE40B0434F009E6801
:10102000BE403043D0601E7906F00306022E13D175
:10103000CF0802F1200656F827004E07F70E0F26BC
:10104000BE40B0434F07FF0E1E69BE403043CF087D
:1010500002F1200646F8270010684F000326BE4024
:10106000B0431E7906F003064F00BE4030431060C7
:101070005E6806F08056B6F1805F7DD100BF002625
:101080000096404E366846F480463E4F3E603E46EF
:10109000366806F48046009600BF00BF3A4E8F08BF
:1010A00056F827008E07370F0F26BE40B043374E45
:1010B000B24202D1002624E05EE0354EB24201D1B8
:1010C00001261EE0334EB24201D1022619E0324E13
:1010D000B24201D1032614E0304EB24201D10426BF
:1010E0000FE02F4EB24201D105260AE02D4EB2424A
:1010F00001D1062605E02C4EB24201D1072600E0C0
:1011000008268F073F0FBE4030431F4E8F0846F81A
:101110002700264E3068A0435E6806F48036B6F598
:10112000803F00D12043214E3060361D3068A043FF
:101130005E6806F40036B6F5003F00D120431B4E32
:10114000361D3060361D3068A0435E6806F4801698
:10115000B6F5801F00D12043144E08363060361D8E
:101160003068A0435E6806F40016B6F5001F00D193
:1011700020430E4E0C363060491C1029FFF41EAF80
:10118000F8BD000044380240083801400000024029
:101190000004024000080240000C0240001002401F
:1011A0000014024000180240001C0240003C0140B4
:1011B000024613690B400BB1012000E0002070478C
:1011C00010B5426921EA020302EA010443EA04433A
:1011D000836110BD0AB1816101E00B048361704736
:1011E00001480068000C7047002004E001480068D6
:1011F0007047000024000020034800680349097874
:101200000844014908607047240000202C00002099
:1012100010B50A48006840F40070084908600846A4
:10122000006840F480600860032000F07FF80F2021
:1012300000F006F800F02AF8002010BD003C024043
:1012400070B504460E4800784FF47A71B1FBF0F0A7
:101250000C490968B1FBF0F5284600F01DFC08B107
:10126000012070BD102C07D200222146501E00F034
:101270001EF80548046001E00120F2E70020F0E7D5
:101280002C00002014000020280000207047014698
:101290000846002809DB00F01F0301229A40430999
:1012A0009B0003F1E023C3F8002100BF70472DE944
:1012B000F05F80460D461646002700F0BFFF074648
:1012C00039462A46334601F00700C0F1070ABAF151
:1012D000040F02D94FF0040A01E0C0F1070AD14619
:1012E00000F1040ABAF1070F02D24FF0000A01E040
:1012F000A0F1030AD4464FF0010A0AFA09FAAAF14A
:10130000010A0AEA020A0AFA0CFA4FF0010B0BFA78
:101310000CFBABF1010B0BEA030B4AEA0B04214671
:10132000404600F093FFBDE8F09F000000BF00F0D2
:101330000702064B19684FF6FF031940044B0B4395
:1013400043EA0221014B196000BF70470CED00E039
:101350000000FA0570B504460D460CB9012070BDB9
:101360005848006800F00700A84209D255490D709E
:101370000846006800F00700A84201D00120EEE70F
:10138000207800F0020002281DD1207800F004002F
:10139000042805D14C48006840F4E0504A490860F0
:1013A000207800F00800082805D14748006840F47C
:1013B0006040454908604448006820F0F000A1689A
:1013C000084341490860207800F00100A8B3606834
:1013D000012807D13C4808380068C0F34040B8B93C
:1013E0000120BCE76068022802D06068032807D1AA
:1013F000354808380068C0F3406048B90120AEE7BE
:10140000314808380068C0F3400008B90120A6E759
:101410002D48006820F00300616808432A490860ED
:10142000FFF7E4FE064609E0FFF7E0FE801B41F20D
:101430008831884202D9032091E707E022480068FA
:1014400000F00C006168B0EB810FEDD11D48006821
:1014500000F00700A84209D91A490D700846006833
:1014600000F00700A84201D0012078E7207800F0C2
:101470000400042807D11448006820F4E050E16813
:10148000084311490860207800F00800082808D1B6
:101490000D48006820F46040216940EAC1000A4913
:1014A000086000F03FF808490968C1F30311074AD2
:1014B000515CC8400649086006480068FFF7C0FE56
:1014C00000204CE7003C024008380240CA4A0008AD
:1014D0001400002028000020014800687047000028
:1014E0001400002000B5FFF7F7FF04490968C1F3B5
:1014F0008221034A515CC84000BD00000838024008
:10150000DA4A000800B5FFF7E7FF04490968C1F3AC
:101510004231034A515CC84000BD00000838024017
:10152000DA4A00082DE9F047002400250026A146EC
:101530002548006800F00C0020B1042805D00828D8
:101540003AD105E0DFF8849039E0DFF8849036E0A6
:101550001D48001F006800F03F041B48001F006882
:1015600000F4800078B11A481749091F0968C1F3CF
:101570008811A0FB01700146224600233846FEF781
:10158000E2FE05460EE011480F49091F0968C1F344
:101590008811A0FB01700146224600233846FEF761
:1015A000D2FE05460848001F0068C0F30140401CF9
:1015B0004600B5FBF6F902E0DFF8109000BF00BF6F
:1015C0004846BDE8F0870000083802400024F400D7
:1015D00000127A00F8B504460CB90120F8BD207855
:1015E00000F00100002874D0F948006800F00C00F9
:1015F00004280DD0F648006800F00C00082813D12C
:10160000F348001F006800F48000B0F5800F0BD194
:10161000EF4808380068C0F34040002859D060689F
:10162000002856D10120D9E700BF6068B0F5803F9F
:1016300008D1E7480838006840F48030E4490839A8
:1016400008601EE06068B0F5A02F0DD1E0480838B2
:10165000006840F48020DE490839086008460068C8
:1016600040F4803008600CE0D9480838006820F465
:101670008030D749083908600846006820F4802087
:10168000086000BF606890B1FFF7B0FD054606E056
:10169000FFF7ACFD401B642801D903209EE7CC482E
:1016A00008380068C0F340400028F1D011E0FFF78F
:1016B0009DFD054606E0FFF799FD401B642801D912
:1016C00003208BE7C24808380068C0F34040002878
:1016D000F1D1207800F0020002285FD1BC480068F8
:1016E00000F00C0058B1BA48006800F00C0008285F
:1016F0001CD1B748001F006800F48000B0B9B4489E
:1017000008380068C0F3400020B1E068012801D02B
:10171000012063E7AE480838006820F0F80021692E
:1017200040EAC100AA490839086037E0E06800B320
:101730000120A8490860FFF759FD054606E0FFF7BC
:1017400055FD401B022801D9032047E7A04808386F
:101750000068C0F340000028F1D09D4808380068B8
:1017600020F0F800216940EAC10099490839086071
:1017700014E0002097490860FFF738FD054606E0B1
:10178000FFF734FD401B022801D9032026E79048CB
:1017900008380068C0F340000028F1D1207800F03C
:1017A000080008282CD16069A8B101208A49086086
:1017B000FFF71CFD054606E0FFF718FD401B022859
:1017C00001D903200AE782486C300068C0F340006A
:1017D0000028F1D014E000207F490860FFF706FDE3
:1017E000054606E0FFF702FD401B022801D9032051
:1017F000F4E677486C300068C0F340000028F1D16F
:10180000207800F00400042870D100277048383098
:10181000006800F0805090B900BF002000906C4834
:101820003830006840F08050694938310860084617
:10183000006800F08050009000BF00BF012767489B
:10184000006800F48070B0B96448006840F48070AB
:1018500062490860FFF7CAFC054606E0FFF7C6FCD0
:10186000401B022801D90320B8E65C48006800F458
:1018700080700028F2D000BFA068012808D1544829
:101880006830006840F001005149683108601DE08F
:10189000A06805280DD14E486830006840F004006B
:1018A0004B49683108600846006840F00100086054
:1018B0000CE047486830006820F001004449683176
:1018C00008600846006820F00400086000BFA068B7
:1018D000A8B1FFF78BFC054609E0FFF787FC401B2A
:1018E00041F28831884202D9032077E626E0384861
:1018F00068300068C0F340000028EED013E0FFF726
:1019000075FC054608E0FFF771FC401B41F2883189
:10191000884201D9032061E62D4868300068C0F391
:1019200040000028EFD1012F07D129483830006846
:1019300020F0805026493831086000BFA069002897
:1019400045D02348006800F00C0008285DD0A0694D
:10195000022845D100201F490866FFF747FC0546CD
:1019600006E0FFF743FC401B022801D9032035E6BF
:10197000174808380068C0F340600028F1D1D4E966
:1019800007010843616A40EA81110122A06AC2EBA3
:10199000500041EA00412C20005D41EA00600C4902
:1019A000091F086001200B490866FFF71FFC054668
:1019B00006E0FFF71BFC401B022801D903200DE6BF
:1019C000034808380068C0F340600028F1D049E0BF
:1019D0000838024000004742800E47420070004035
:1019E000002021490866FFF701FC054606E0FFF7E5
:1019F000FDFB401B022801D90320EFE51B480068CE
:101A0000C0F340600028F2D12CE0A069012800D189
:101A1000E4E51648001D0668A069012820D006F4F8
:101A20008001E06981421BD106F03F01206A8142BA
:101A300016D147F6C0703040616AB0EB811F0FD1FC
:101A400006F440310122A06AC2EB5000B1EB004F16
:101A500006D106F070612C20005DB1EB006F01D063
:101A60000120BBE50020B9E50000474200380240F4
:101A7000042808D14FF0E021096941F004014FF03A
:101A8000E022116107E04FF0E021096921F0040133
:101A90004FF0E0221161704770B504462546681E7C
:101AA000B0F1807F01D301200FE0681E4FF0E021EC
:101AB00048610F214FF0FF3000F0C8FB00204FF0CD
:101AC000E021886107200861002070BD70477047E1
:101AD000704710B5044620680069C0F34000D8B1D3
:101AE0002068C068C0F34000B0B16FF00200216808
:101AF0000861012020772068806900F0030018B198
:101B00002046FFF7E5FF05E0204600F0ADF820464F
:101B100000F0ABF80020207720680069C0F3800057
:101B2000D8B12068C068C0F38000B0B16FF0040085
:101B300021680861022020772068806900F44070E5
:101B400018B12046FFF7C4FF05E0204600F08CF8EE
:101B5000204600F08AF80020207720680069C0F352
:101B6000C000D8B12068C068C0F3C000B0B16FF049
:101B7000080021680861042020772068C06900F00F
:101B8000030018B12046FFF7A3FF05E0204600F050
:101B90006BF8204600F069F8002020772068006983
:101BA000C0F30010D8B12068C068C0F30010B0B115
:101BB0006FF0100021680861082020772068C06954
:101BC00000F4407018B12046FFF782FF05E0204680
:101BD00000F04AF8204600F048F8002020772068FE
:101BE000006900F0010058B12068C06800F00100F1
:101BF00030B16FF0010021680861204600F036F82E
:101C000020680069C0F3C01058B12068C068C0F3F4
:101C1000C01030B16FF08000216808612046FFF7E6
:101C200055FF20680069C0F3801058B12068C06873
:101C3000C0F3801030B16FF0400021680861204689
:101C400000F026F820680069C0F3401058B1206801
:101C5000C068C0F3401030B16FF020002168086107
:101C60002046FFF734FF10BD7047704710B504469B
:101C70000548844206D100BF4FF480610348FFF756
:101C80009FFA00BF10BD0000F001002000140240C8
:101C9000704710B504460CB9012010BDA06900B111
:101CA00000E000BF94F83D0028B9002084F83C0013
:101CB000204600F027F8242084F83D002068C06802
:101CC00020F400502168C860204600F029F92068FF
:101CD000006920F49040216808612068406920F084
:101CE0002A00216848612068C06840F400502168DB
:101CF000C86000202064202084F83D0084F83E0065
:101D00000020CAE710B586B004462E4920688842F4
:101D100055D100BF00BF002000902B48006840F064
:101D20001000294908600846006800F01000009083
:101D300000BF00BF00BF00BF00BF002000902248CE
:101D40001438006840F001001F4914390860084643
:101D5000006800F00100009000BF00BF00BF00BF9E
:101D600000BF002000900846006840F001000860B5
:101D70000846006800F00100009000BF00BF00BFEF
:101D80004815019002200290012003900220049047
:101D90000720059001A90D48FFF708F94FF480606E
:101DA00001900720059001A90848FFF7FFF82520BA
:101DB000FFF76DFA032211462520FFF778FA06B0E7
:101DC00010BD0000001001404438024000000240F5
:101DD00070B504460D46164694F83E00202816D1EC
:101DE00005B10EB9012070BD00BF94F83C00012878
:101DF00001D10220F7E7012084F83C0000BF002059
:101E0000206332462946204600F0A0F9EBE7022085
:101E1000E9E700BFFEE700BFFEE7704710B5FFF738
:101E2000EBF902F005FB012801D001F0D9FF10BD4C
:101E30000348006840F470000149086070470000E2
:101E400088ED00E010B50248FFF743FE10BD00002A
:101E5000F00100200EB538E001F0E2FB694601A870
:101E600000F061FB054601F027FCADB99DF80400C8
:101E7000164908709DF800001549087000224FF4BB
:101E800000711448FFF7A6F9322000F089FA012208
:101E900051021048FFF79EF900F0E6FB04460B489C
:101EA00000788DF808000A4800788DF80900ADF830
:101EB0000A4000230A2202A90748006802F070F8CD
:101EC00040F2DC5001F024FD00BFC5E71000002007
:101ED00011000020001402400000002008B511E0AD
:101EE0004FF0FF3269460848006802F04BF90128BC
:101EF00008D1BDF802309DF801209DF8001003A024
:101F0000FEF798FAECE700000000002024454E564A
:101F10002C25642C25642C2564230D0A0000000068
:101F20002DE9F84F04462068006920F44050E1682C
:101F30000843216808612169A06808436169084372
:101F4000E169084300902068C06849F20C61884349
:101F5000009908432168C8602068406920F44070F7
:101F6000A16908432168486176492068884203D006
:101F700075492068884203D1FFF7C4FA814602E020
:101F8000FFF7B0FA8146E069B0F5004F6CD102204E
:101F90006168A0FB015003461920A9FB00700146AF
:101FA0002A463846FEF7CFF96421B0FBF1F04FEA3C
:101FB000001A02206168A0FB01510B461920A9FB01
:101FC00000712A463846FEF7BEF983460220616852
:101FD000A0FB015003461920A9FB00712A46384690
:101FE000FEF7B1F96421B0FBF1F000EBC00101EBA9
:101FF0000010ABEB8000322101EBC0006421B0FB8C
:10200000F1F000F0F8000AEB400A02206168A0FB42
:10201000015003461920A9FB007001462A463846A4
:10202000FEF791F9834602206168A0FB0150034648
:102030001920A9FB00712A463846FEF784F964216D
:10204000B0FBF1F000EBC00101EB0010ABEB800046
:10205000322101EBC0006421B0FBF1F000F0070079
:102060005044216888606AE004206168A0FB015048
:1020700003461920A9FB007001462A463846FEF7A0
:1020800062F9824604206168A0FB015003461920D2
:10209000A9FB007001462A463846FEF754F9642130
:1020A000B0FBF1F000EBC00101EB0010AAEB8000E7
:1020B000322101EB00106421B0FBF1F000F0F00AD6
:1020C00004206168A0FB017003461920A9FB0051A0
:1020D0003A462846FEF737F96421B0FBF1F00AEBE7
:1020E000001A04206168A0FB01510B461920A9FBCE
:1020F00000712A463846FEF726F9834604206168B7
:10210000A0FB015003461920A9FB007001462A4696
:102110003846FEF718F96421B0FBF1F000EBC0017E
:1021200001EB0010ABEB8000322101EB00106421C9
:10213000B0FBF1F000F00F00504421688860BDE86A
:10214000F88F0000001001400014014010B5034654
:1021500099629A85DA8500201864222083F83E006F
:1021600000BF002083F83C0000BF1868C06840F43E
:1021700080701C68E0601868406940F001001C68CD
:1021800060611868C06840F020001C68E0600020B2
:1021900010BD000010B5204800680068C0F3401072
:1021A000002837D01D484068C4B21D480078312847
:1021B0000BDA1B4801780078401C194A1070194846
:1021C00044540020174912788854232C10D116A1AA
:1021D0001448FEF73DFA20B14FF480611548FEF730
:1021E000EFFF00200E49087032210E48FEF78FFAEB
:1021F000242C0AD100200A4908700846017800788A
:10220000401C074A1070074844546FF020000249F0
:102210000968086010BD000078010020001001402E
:1022200023000020BC01002024434D442C4C454495
:10223000000000000014024000BFFEE702480068F2
:10224000C0F30220704700000CED00E010B500283C
:1022500004DB0A07130E054A135406E00A07140E9E
:10226000034A00F00F031B1FD45410BD00E400E02C
:1022700018ED00E030380A2801D201207047002014
:10228000704700BF70472DE9FF4107460C461546D1
:102290001E4600940195029669463846FEF73AFCC0
:1022A000BDE8FF8110B504460723012221460748F7
:1022B000FFF7E9FF0548FEF7D3FD0A210348FEF7C3
:1022C00067FD0248FEF7ECFC80B210BD380200202A
:1022D0002DE9F04107460C460025002608E0384667
:1022E000FFF7E0FF0544052000F05AF8701CC6B265
:1022F000A642F4DBB5FBF4F0BDE8F08108B500BF01
:1023000000BF002000901448006840F4806012492B
:1023100008600846006800F48060009000BF00BFBD
:1023200000BF0E480E4908604FF48030486000211D
:102330000B488160C1600161416101760121C16189
:10234000002180F820104162064981620021C162AB
:10235000FEF7AAFC08BD00004438024000220140FC
:10236000380200200100000F70B504460420FFF77A
:102370007FFB0A48046025464FF47A7045434FF0CE
:10238000E020006940F002004FF0E02108610846BB
:102390004561006940F00100086170BD180000202F
:1023A00030B50446002504E04FF47A7000F004F8DC
:1023B0006D1CA542F8D330BD70B5034600224FF026
:1023C000E02675690D4E366803FB06F44FF0E026F3
:1023D000B16910E04FF0E026B06988420BD0884226
:1023E00002D20E1A324402E02E1A0E443244014642
:1023F000A24200D300E0EDE700BF70BD180000204E
:1024000070B50024002504E0601CC4B20120FFF771
:10241000D3FF4FF400710F48FEF7CAFE08B1642CD9
:10242000F2DB642C01DB012511E0002404E0601CD8
:10243000C4B20120FFF7C0FF4FF400710548FEF75A
:10244000B7FE08B9642CF2DB642C00DB01252846BA
:1024500070BD00000018024000B587B000BF00BF8B
:10246000002001900F48006840F040000D490860CE
:102470000846006800F04000019000BF00BF00BFA8
:10248000481502901120039001200490022005902D
:1024900002A90548FEF78AFD00F072F8FFF7B0FFC9
:1024A00007B000BD303802400018024010B50024CB
:1024B00004E0601CC4B20120FFF77EFF4FF40071FE
:1024C0001048FEF775FE08B1642CF2DB002404E02E
:1024D000601CC4B20120FFF76FFF4FF40071094880
:1024E000FEF766FE08B9642CF2DB2820FFF764FFD4
:1024F0004FF400710348FEF75BFE08B1012010BDE8
:102500000020FCE70018024070B50024002506E01A
:102510006006040EFFF7CAFF0443681CC5B2082D0D
:10252000F6DB204670BD7CB505460E4600F028F867
:10253000FFF766FFF8B9002405E0FFF7E5FF0DF8A7
:102540000400601CC4B2052CF7DB9DF800009DF868
:10255000011008449DF8021008449DF80310084437
:102560009DF80410884208D19DF8000030709DF855
:102570000200287001E001207CBD0020FCE7000083
:1025800010B500BF00224FF400710948FEF722FE8B
:1025900000BF1420FFF704FF00BF012251020448CE
:1025A000FEF718FE00BF1E20FFF706FF10BD00005B
:1025B0000018024000BF054A126802F04002002ADB
:1025C000F9D0C2B2014B5A607047000000100140C0
:1025D00000B587B000BF00BF002001902048006810
:1025E00040F020001E4908600846006800F0200006
:1025F000019000BF00BF00BF00BF00BF00200190DE
:102600000846006840F0200008600846006800F0B6
:102610002000019000BF00BF00BF481502900120BC
:10262000039004900220059002A90E48FEF7BEFC1C
:102630004FF48060029002A90A48FEF7B7FC00BF81
:10264000012251020748FEF7C5FD00BF00BF01226D
:1026500091020448FEF7BEFD00BF07B000BD0000B8
:10266000303802400014024010B500240A21052031
:10267000FFF72EFE04462820B4FBF0F4642C00D9AA
:102680006424C4F16400C0B210BD000000B587B07E
:1026900000BF00BF002001900D48006840F02000FE
:1026A0000B4908600846006800F02000019000BF58
:1026B00000BF00BF80200290032003900020049000
:1026C00002A90448FEF772FCFFF718FE07B000BD30
:1026D00030380240001402401CB5FEF799FD072374
:1026E000022208214FF4A87000F0DAFEA820FFF7BC
:1026F0003BFE4FF4E13000F039FFFFF769FFFFF7D1
:10270000ABFEFFF7C3FF11A0FDF794FE00220421EA
:10271000052001F07FFB12490860124802210023C6
:102720008022CDE9001010A1114801F051FE11489E
:10273000032100238022CDE900100FA1104801F0F1
:1027400047FE01F0B1F900BFFEE700005379737452
:10275000656D20496E6974204F4B2E2E2E0D0A0098
:10276000000000200800002053656E736F720000A7
:10277000551E00080C000020554152540000000076
:10278000DD1E00082DE9F04105460E462948076880
:1027900000202949096881F8590027480068001D70
:1027A00000F000FF50B92448006890F82C10012078
:1027B000884022490968814320480160681CD8B9D3
:1027C000D6B11F4948681C49096888601A4982685F
:1027D0000968CA6018490968091D8268516016496C
:1027E0000968091D8160164A134909684A61114642
:1027F0000968491C11601AE07C190F4800684460A0
:10280000BC4207D20C480168091D0E48006800F060
:10281000EDFE0CE008480168091D0B48006800F057
:10282000E5FE0A480068844201D208480460BDE819
:10283000F08100004400002030000020480000200B
:1028400090050020380000203400002060000020A7
:1028500010B5044600F0E4FE31480068401C3049E1
:1028600008603048006840B92E4804600846006897
:1028700001280DD100F016FA0AE02B48006838B99B
:1028800028480068C06AE16A884201D82548046087
:1028900026480068401C25490860084600686064B6
:1028A00094F82C10012088402149096808432049E8
:1028B0000860E16A01EB81011E4A02EB8101486870
:1028C000A0608268E260211D826851608160E16AD7
:1028D00001EB8101174A02EB81026261E16A01EBBF
:1028E0008101144A52F82110491CE26A02EB82026B
:1028F000104B43F8221000F0DFFE0B48006868B16F
:1029000008480068C06AE16A884207D24FF08050E8
:1029100009490860BFF34F8FBFF36F8F10BD0000F0
:1029200040000020300000204C0000205C0000200F
:1029300048000020C002002004ED00E010B500F0C7
:102940006FFE10480068D0B90F4800F03FFE0F48F6
:1029500000F03CFE0C480E4908600C480D49086028
:1029600000221021052001F055FA064908600846AA
:10297000006820B108A10348006800F05DFF00F086
:102980009BFE10BD78000020A4050020B8050020A3
:102990007000002074000020546D7251000000008F
:1029A00010B516E000F03CFE0C48C068C468201D5D
:1029B00000F0F8FD0A480068401E0949086009480F
:1029C0000068401E0749086000F076FE204600F0CF
:1029D0005FF8044800680028E4D110BD7C050020A1
:1029E000400000203C00002070B504460D46206CDD
:1029F00070B1216CE0680144E160D4E902108842C2
:102A000001D32168E1602846226CE168FDF732FEBF
:102A100070BD2DE9F04104460F4615464FF0000801
:102A2000A66B206C48B9206800282CD1A06801F062
:102A300009FE80460020A06025E07DB93946226C61
:102A40006068FDF717FE216C606808446060D4E997
:102A50000101884217D32068606014E03946226C77
:102A6000E068FDF707FE216CE068411AE16021682B
:102A7000E068884203D2216CA068411AE160022D0F
:102A800001D106B1761E701CA0634046BDE8F081FE
:102A900010B50446206B00F04FFE204600F04CFEBF
:102AA00010BD00000146084A126812680AB90122E6
:102AB00000E000220A600A6822B9034A1268D2685C
:102AC000106800E0002070477000002030B54FF41F
:102AD0002053174800F007042CB1C01D20F0070058
:102AE000134C041B1B1B0246124C22600024114D88
:102AF0006C60D018083820F007000F4C20600024CC
:102B00000D4D2D686C600C4D2D682C601146441ADB
:102B10004C60094C24680C60084D4C682C60084DD2
:102B20004C682C604FF00044064D2C6030BD000016
:102B3000CC050020840000208C00002094000020A0
:102B400090000020A000002000BFFFF729FF0648EA
:102B500000680128F9D94FF0805004490860BFF39C
:102B60004F8FBFF36F8FF0E7C002002004ED00E04D
:102B70002DE9F04106460D4617469846069C0DB9CC
:102B8000246000E02760E66325640121204601F00F
:102B900089F984F850800020A064BDE8F08100002D
:102BA0002DE9F05F82460F4690469B460A9E0C9C9C
:102BB0004FEA8801A522206BFDF7A1FDA8F10100D5
:102BC000216B01EB800929F0070909F0070008B91A
:102BD000012000E0002028B94FF4587224A12DA054
:102BE000FDF728FC87B1002507E0795D04F134008A
:102BF0004155785D00B902E06D1C102DF5D300BF82
:102C000000214320015502E0002084F83400202EEA
:102C100001D2012000E0002028B940F2973214A12F
:102C20001CA0FDF707FC202E00D31F26E662E664F9
:102C300000202065201D00F0D6FC04F1180000F0F3
:102C4000D2FC2461C6F12000A061646200206065AE
:102C500084F8580084F859005A465146484600F016
:102C600009FC20600B9808B10B980460BDE8F09F48
:102C70002E2E5C2E2E5C4D6964646C6577617265E6
:102C8000735C4672656552544F535C7461736B7329
:102C90002E6300004572726F723A2025732C202536
:102CA000640D0A0010B5002407E004EB84010F4A0C
:102CB00002EB810000F08AFC641C202CF5D30C4848
:102CC00000F084FC0B4800F081FC0B4800F07EFC17
:102CD0000A4800F07BFC0A4800F078FC04480949E7
:102CE000086004480849086010BD0000C0020020C8
:102CF0004005002054050020680500207C050020C8
:102D000090050020340000203800002010B5014656
:102D1000164800E0006803688B42FBD30246436814
:102D200013448B4204D143684C68234443600146FA
:102D30000A464B6813440468A34211D10C4C036843
:102D40002468A34208D04B680468646823444B603D
:102D500003681B680B6005E0054B1B680B6001E016
:102D600003680B60884200D0016010BD8400002021
:102D70008C0000202DE9F04104460D4616461F4602
:102D80004FF0000865602461B5420CD8F01BA169C2
:102D9000884202D34FF0010811E0211D0948006864
:102DA00000F024FC0BE0BE4204D2BD4202D34FF03F
:102DB000010804E0211D0448006800F017FC4046AB
:102DC000BDE8F081740000207000002070B5054659
:102DD00000F026FCA86B08B9012400E0002400F0F4
:102DE0006BFC204670BD70B5054600F019FCA86B61
:102DF000E96B884201D1012400E0002400F05CFC72
:102E0000204670BDF1B50098846C00262CB940F6C0
:102E1000D53220A128A0FDF70DFBA06BE16B884205
:102E200001D2012000E0002028B940F6D63219A1D5
:102E300021A0FDF7FFFAA06BE16B884227D294F93D
:102E40004550002269462046FFF7E3FD0646681C10
:102E500060B9606A08B9012000E00020B0B904F14F
:102E6000240001F077FC88B101260FE07F2D01D00E
:102E7000012000E0002028B940F6F63205A10EA09E
:102E8000FDF7D8FA681C40B284F8450000BF304610
:102E9000F8BD00002E2E5C2E2E5C4D6964646C65BE
:102EA00077617265735C4672656552544F535C710D
:102EB000756575652E6300004572726F723A202544
:102EC000732C2025640D0A0070B505460E460E4889
:102ED0000068C068C468201D00F064FB94F82800F6
:102EE00000F0040028B132462946204600F0FEF8E2
:102EF00005E094F8280000F0FE0084F82800204641
:102F0000216A884770BD00007000002070B586B04F
:102F10008AE0029800280CDA03AE2EB940F206329D
:102F200047A150A0FDF786FAD6E90020B168904786
:102F300000BF0298002877DB049C606908B9012073
:102F400000E0002010B9201D00F02CFB01A800F0CB
:102F5000F9F8054602980A2864D2DFE800F0630514
:102F6000072E365306082F3700BF00BF00BF94F866
:102F7000280040F0010084F828000398A269811815
:102F800003462A462046FFF7F5FEA8B194F828002C
:102F900000F0040038B10398A26981182A4620463F
:102FA00000F0A4F805E094F8280000F0FE0084F892
:102FB00028002046216A884735E000BF94F82800A1
:102FC00000F0FE0084F828002DE000BF94F82800EF
:102FD00040F0010084F828000398A061A06908B1BE
:102FE000012000E0002028B940F2593214A11DA0B0
:102FF000FDF720FAA06941192B462A462046FFF723
:10300000B9FE10E094F8280000F0020018B920463C
:1030100000F092FB05E094F8280000F0FE0084F830
:10302000280000E000BF00BF002202A9114800688C
:1030300001F0A8F800287FF46CAF06B070BD000066
:103040002E2E5C2E2E5C4D6964646C657761726512
:10305000735C4672656552544F535C74696D65725A
:10306000732E63004572726F723A2025732C2025EF
:10307000640D0A0078000020F8B505460C4600F003
:1030800075FD684600F05EF80646009820BB44B91E
:10309000B54206D801F004FC31462846FFF714FF7C
:1030A0001CE03CB10E480068006808B9012000E04F
:1030B00000200446A91B22460A48006800F002FCD2
:1030C00001F0EEFB50B94FF0805007490860BFF3A4
:1030D0004F8FBFF36F8F01E001F0E2FBF8BD0000FE
:1030E000740000207800002004ED00E070B5044674
:1030F0000D46164604E0A06905442046216A88472B
:10310000A06941192B4632462046FFF733FE0028BE
:10311000F1D170BD09480068006808B9012000E0DD
:10312000002020B14FF0FF300549086005E003485A
:103130000068C068006802490860704734000020D9
:103140006000002070B5044601F082F9054607488A
:103150000068854204D200F00BF80120206001E0F5
:103160000020206001480560284670BD80000020D6
:1031700070B508E00D480068C06804684FF0FF3182
:103180002046FFF7A1FE09480068006808B9012041
:1031900000E000200028EDD00448056804480068DD
:1031A000024908600248056070BD00007000002000
:1031B000740000200B480068401C08B9012000E0A2
:1031C000002020B9E92208A116A0FDF733F900BFBD
:1031D000502080F31188BFF34F8FBFF36F8F00BF74
:1031E00000BFFEE7A40000202E2E5C2E2E5C4D6951
:1031F00064646C6577617265735C46726565525490
:103200004F535C706F727461626C655C52564453CC
:103210005C41524D5F434D34465C706F72742E6357
:10322000000000004572726F723A2025732C202531
:10323000640D0A0008B500BF6846FFF733FC04467A
:1032400020460099FFF718FFFFF760FEF4E770B51E
:10325000044600F0E5F994F9455019E0A06C30B14E
:103260002046FFF7CFFD88B100F0A0FB0EE0606ABA
:1032700008B9012000E0002038B904F1240001F071
:1032800069FA18B100F092FB00E003E0681E45B255
:10329000002DE3DC00BFFF2084F8450000F00CFAAD
:1032A00000F0BEF994F9445010E0206908B90120FB
:1032B00000E0002048B904F1100001F04BFA08B119
:1032C00000F074FB681E45B200E001E0002DECDC6C
:1032D00000BFFF2084F8440000F0EEF970BD00004C
:1032E0002DE9F04104464FF0000800F03FFC49484A
:1032F000006808B9FFF7EAFB47480068204000284B
:1033000075D1002C23D004F10800A0421FD9083445
:1033100004F0070000281BD004F00700C0F10800EB
:103320002044A04211D904F00700C0F10800044471
:1033300004F0070008B9012000E0002040B99C22F9
:1033400036A144A0FDF776F802E0002400E0002456
:10335000002C4CD043480068844248D8424E304646
:10336000056801E02E462D686868A04202D22868F0
:103370000028F7D127480068854238D0306800F12E
:103380000808286830606868001B102813D92F19B6
:1033900007F0070008B9012000E0002020B9CF2283
:1033A0001EA12CA0FDF746F86868001B78606C60D1
:1033B0003846FFF7ABFC2B4968680968081A2949A9
:1033C00008600846006829490968884203D22548F0
:1033D0000068264908601049686809680843686001
:1033E0000020286022480068401C2149086001F044
:1033F00057FA08F0070008B9012000E0002028B9BA
:103400004FF4887205A113A0FDF714F84046BDE8FB
:10341000F08100008C000020A00000202E2E5C2EE9
:103420002E5C4D6964646C6577617265735C46728D
:10343000656552544F535C706F727461626C655C69
:103440004D656D4D616E675C686561705F342E63BC
:10345000000000004572726F723A2025732C2025FF
:10346000640D0A00900000208400002094000020D9
:1034700098000020001F4FF080730360001F21F0B0
:1034800001030360001F054B036014380260001F36
:103490006FF002030360203870470000B531000868
:1034A0002DE9F04192B080460C4615461E46002795
:1034B00000BF002000902A48006840F08050284952
:1034C00008600846006800F08050009000BF00BF10
:1034D00000BF002000902348006840F4804021494C
:1034E00008600846006800F48040009000BF00BFFC
:1034F00001200190000402900220079041050891EC
:10350000CDF8288009940B950C9601A8FEF762F877
:1035100007461FB1012012B0BDE8F0810F200D90C9
:1035200002200E9000200F904FF4A05010904FF406
:103530008050119004210DA8FDF70CFF07460FB134
:103540000120E8E7FDF74CFE41F20101884205D178
:103550000548006840F48070034908600020DAE7FD
:103560004038024000700040003C024010B5044664
:1035700009480A4908600846446000218160C1602A
:10358000016181610C214161FEF783FB0122044945
:103590000248FEF71DFC10BD00100140780100201C
:1035A0002200002001460A69D1E901309860D1E982
:1035B000010358605068884201D18868506000203B
:1035C00008611068401E10601068704700F1080123
:1035D00041604FF0FF31816000F10801C16001617D
:1035E00000210160704700210161704710B502465B
:1035F0000B685C1C0CB9106907E002F1080000E0E0
:103600004068446824689C42FAD944684C604C681D
:10361000A160886041600A611468641C146010BD78
:1036200010B500BF502080F31188BFF34F8FBFF358
:103630006F8F00BF0B480068401C0A4908600846AD
:10364000006801280DD108480068C0B208B90120FF
:1036500000E0002028B94FF4DB7204A112A0FCF7AF
:10366000E9FE10BDA400002004ED00E02E2E5C2E2B
:103670002E5C4D6964646C6577617265735C46723B
:10368000656552544F535C706F727461626C655C17
:10369000525644535C41524D5F434D34465C706F0B
:1036A00072742E63000000004572726F723A20251A
:1036B000732C2025640D0A0010B50B48006828B94A
:1036C00040F2BD1209A118A0FCF7B4FE064800683C
:1036D000401E054908600846006820B9002080F3B4
:1036E000118800BF00BF10BDA40000202E2E5C2E4C
:1036F0002E5C4D6964646C6577617265735C4672BB
:10370000656552544F535C706F727461626C655C96
:10371000525644535C41524D5F434D34465C706F8A
:1037200072742E63000000004572726F723A202599
:10373000732C2025640D0A0070B506463546002E10
:103740003AD0083D2C461D4960680968084008B118
:10375000012000E0002028B94FF4927218A126A0A1
:10376000FCF768FE206808B9012000E0002028B9B5
:1037700040F2251212A120A0FCF75CFE0F49606800
:1037800009680840C0B12068B0B90C496068096890
:103790008843606000F0EAF91B49606809680844E2
:1037A000194908602046FFF7B1FA18480068401C24
:1037B0001649086001F074F870BD0000A0000020F8
:1037C0002E2E5C2E2E5C4D6964646C65776172658B
:1037D000735C4672656552544F535C706F727461CE
:1037E000626C655C4D656D4D616E675C68656170AE
:1037F0005F342E63000000004572726F723A20251C
:10380000732C2025640D0A00900000209C000020ED
:1038100000204FF0E02108618861064800684FF4FD
:103820007A71B0FBF1F0401E4FF0E02148610720B3
:1038300008617047140000202DE9F04106460F464C
:103840002EB940F6C82211A119A0FCF7F3FD0025FE
:10385000BFB1002412E01A4800EBC4004068B04237
:1038600003D1174800EBC4050AE035B9144850F8F5
:10387000340010B9124800EBC405641C082CEAD3CC
:1038800000BF0DB12F606E60BDE8F0812E2E5C2E62
:103890002E5C4D6964646C6577617265735C467219
:1038A000656552544F535C71756575652E630000F4
:1038B0004572726F723A2025732C2025640D0A0020
:1038C000800200202DE9F04105460E4617462C46A1
:1038D000FFF7A6FE94F94400401C10B9002084F8BC
:1038E000440094F94500401C10B9002084F84500BC
:1038F000FFF7E2FEA06B28B93A46314604F12400F6
:1039000000F08CF82046FFF7A2FCBDE8F081000033
:1039100070B504460025ACB10F48006808B9012015
:1039200000E0002028B940F249520CA114A0FCF795
:1039300081FD00F01BF900212046FEF723FF00F077
:10394000AFFF05463DB94FF0805011490860BFF305
:103950004F8FBFF36F8F70BD6C0000202E2E5C2E3A
:103960002E5C4D6964646C6577617265735C467248
:10397000656552544F535C7461736B732E63000022
:103980004572726F723A2025732C2025640D0A004F
:1039900004ED00E0034909680160034909684160DA
:1039A0007047000058000020440000200120014919
:1039B000086070475400002070B504460D462CB9CD
:1039C00040F61C4207A110A0FCF734FD1248016824
:1039D00018312046FFF70AFE01212846FEF7D2FEE5
:1039E00070BD00002E2E5C2E2E5C4D6964646C65EB
:1039F00077617265735C4672656552544F535C74AF
:103A000061736B732E6300004572726F723A2025EA
:103A1000732C2025640D0A003000002070B5044688
:103A20000E4615462CB940F6524211A119A0FCF7DA
:103A300001FD60681B490968C8611A498268096804
:103A40000A62184909681831826851601549096885
:103A500018318160134909688C622168491C216012
:103A60000DB14FF0FF3629463046FEF78BFE70BD94
:103A70002E2E5C2E2E5C4D6964646C6577617265D8
:103A8000735C4672656552544F535C7461736B731B
:103A90002E6300004572726F723A2025732C202528
:103AA000640D0A00300000201CB51B4800210B46A5
:103AB0008022CDE9001019A11A4800F089FC0446C3
:103AC000012C02D100F0BCFF0446012C15D100BF2F
:103AD000502080F31188BFF34F8FBFF36F8F00BF6B
:103AE0004FF0FF30104908600120104908600020A5
:103AF0000F49086000F09EF80BE0601C08B101203F
:103B000000E0002028B94FF404620AA112A0FCF7DB
:103B100091FC154800681CBD6400002049444C45D8
:103B200000000000492B0008600000204C0000202D
:103B3000440000202E2E5C2E2E5C4D6964646C6562
:103B400077617265735C4672656552544F535C745D
:103B500061736B732E6300004572726F723A202599
:103B6000732C2025640D0A006800002002480068BC
:103B7000401C0149086070476C00002010B51B48CC
:103B8000006818B101201A4908602DE0002018498A
:103B9000086018480068B0FA80F0C0F11F0404EB18
:103BA0008400154951F8200008B1012000E00020F0
:103BB00028B940F6024211A119A0FCF73BFC04EB26
:103BC00084010D4A02EB810041684968416000F1BF
:103BD000080142688A4202D14168496841604168EF
:103BE000C968134A116000BF10BD00006C000020BE
:103BF0005400002048000020C00200202E2E5C2E21
:103C00002E5C4D6964646C6577617265735C4672A5
:103C1000656552544F535C7461736B732E6300007F
:103C20004572726F723A2025732C2025640D0A00AC
:103C3000300000201CB5504800685049884201D02F
:103C4000012000E0002028B940F243124CA15BA003
:103C5000FCF7F0FB484800684849491E884201D0FB
:103C6000012000E0002028B94FF4A27244A153A023
:103C7000FCF7E0FB554C204600780190FF202146E0
:103C800008700846007800909DF8000000F0F000F1
:103C90009DF80010884201D1012000E0002028B9E1
:103CA00040F25D1236A145A0FCF7C4FB9DF8000070
:103CB00000F050004649087007204649086009E0B6
:103CC00044480068401E434908609DF800004006D3
:103CD000000E00909DF8000000F080008028EFD0DA
:103CE0003C480068C0F10700042801D1012000E031
:103CF000002028B940F2711221A130A0FCF79AFBF4
:103D000034480068C0F10700042801D1012000E018
:103D1000002028B94FF4BD7219A128A0FCF78AFB36
:103D20002C48006800022B4908600846008800F40F
:103D3000E06008602549019808700F48203000684D
:103D400040F470000C49203108600846006840F0DB
:103D500070400860FFF75CFD00201F490860FCF719
:103D60008FFA1E48006840F040401C490860FCF78C
:103D700073FA00201CBD000000ED00E071C20F418D
:103D80002E2E5C2E2E5C4D6964646C6577617265C5
:103D9000735C4672656552544F535C706F72746108
:103DA000626C655C525644535C41524D5F434D34E6
:103DB000465C706F72742E63000000004572726F73
:103DC000723A2025732C2025640D0A0000E400E0DF
:103DD000A8000020AC000020A400002034EF00E088
:103DE00010B500BF502080F31188BFF34F8FBFF391
:103DF0006F8F00BF00F032FB18B14FF080500449C4
:103E0000086000BF002080F3118800BF10BD0000D3
:103E100004ED00E02DE9F84305460E461746002460
:103E2000E5B1601EB0FBF5F0B04217D305FB06F01C
:103E300010F1550F12D805FB06F909F15400FFF7F0
:103E40004FFA04468CB1A04608F154083B4642465E
:103E5000314628460094FEF78BFE06E02CB94FF45D
:103E6000E37203A10BA0FCF7E5FA2046BDE8F88356
:103E70002E2E5C2E2E5C4D6964646C6577617265D4
:103E8000735C4672656552544F535C717565756518
:103E90002E6300004572726F723A2025732C202524
:103EA000640D0A002DE9F04105460E4601272C4617
:103EB0002CB94FF488722CA134A0FCF7BBFA002C6B
:103EC00042D0E06B00283FD04FF0FF31E06BB1FBF8
:103ED000F0F0216C884237D3FFF7A2FBD4E90F1230
:103EE000206801FB0200A0600020A06320686060E1
:103EF000E06B401E226C216800FB0211E160FF2094
:103F000084F8440084F845009EB9206908B901206E
:103F100000E00020A8B904F1100000F01BFC80B103
:103F20004FF080501D490860BFF34F8FBFF36F8F74
:103F300007E004F11000FFF749FB04F12400FFF74C
:103F400045FBFFF7B9FB00E000270FB1012000E0BF
:103F5000002028B940F2451203A10CA0FCF76AFA30
:103F60003846BDE8F08100002E2E5C2E2E5C4D6997
:103F700064646C6577617265735C46726565525402
:103F80004F535C71756575652E6300004572726FE5
:103F9000723A2025732C2025640D0A0004ED00E000
:103FA0002DE9FF4782B0064688461D464FF00009BE
:103FB00034462CB940F22E3264A16DA0FCF73AFAD7
:103FC000B8F1000F01D1206C08B9012000E00020F9
:103FD00028B940F22F325DA165A0FCF72BFA022D23
:103FE00002D1E06B012801D1012000E0002028B9B6
:103FF0004FF44C7255A15EA0FCF71CFA00F018FAC1
:1040000008B9049808B9012000E0002028B940F25E
:1040100033324EA156A0FCF70DFA00BFFFF700FBAC
:10402000A06BE16B884201D3022D3ED1D4F838A0B9
:104030002A4641462046FEF7ECFC0746A06C88B1B4
:10404000022D02D1BAF1000F29D12046FEF7DAFE87
:1040500028B34FF080504A490860BFF34F8FBFF339
:104060006F8F1CE0606A08B9012000E0002068B989
:1040700004F1240000F06EFB88B14FF080504049FD
:104080000860BFF34F8FBFF36F8F08E03FB14FF071
:1040900080503B490860BFF34F8FBFF36F8FFFF72E
:1040A0000BFB012006B0BDE8F087049818B9FFF7B4
:1040B00003FB0020F6E7B9F1000F04D16846FFF7D3
:1040C00069FC4FF00109FFF7F7FAFFF74FFDFFF723
:1040D000A7FA94F94400401C10B9002084F8440069
:1040E00094F94500401C10B9002084F84500FFF702
:1040F000E3FA04A9684600F005F9F8B92046FEF78E
:1041000072FEA8B104F110000499FFF755FC204697
:10411000FFF79DF800F0C4FB00287FF47FAF4FF05D
:10412000805017490860BFF34F8FBFF36F8F75E75B
:104130002046FFF78CF800F0B3FB6FE72046FFF74F
:1041400086F800F0ADFB0020ACE700002E2E5C2EC0
:104150002E5C4D6964646C6577617265735C467250
:10416000656552544F535C71756575652E6300002B
:104170004572726F723A2025732C2025640D0A0057
:1041800004ED00E02DE9F74183B005460E464FF0FF
:1041900000082C462CB940F251524CA154A0FCF717
:1041A00049F90EB9206C08B9012000E0002028B9B7
:1041B00040F2555245A14EA0FCF73CF900F038F909
:1041C00008B9059808B9012000E0002028B940F29C
:1041D0005A523EA146A0FCF72DF900BFFFF720FA86
:1041E000A76BF7B131462046FEF7FEFB781EA063B1
:1041F000206908B9012000E0002060B904F1100036
:1042000000F0A8FA38B14FF080503D490860BFF384
:104210004F8FBFF36F8FFFF74FFA012006B0BDE855
:10422000F081059818B9FFF747FA0020F6E7B8F1D2
:10423000000F04D101A8FFF7ADFB4FF00108FFF715
:104240003BFAFFF793FCFFF7EBF994F94400401CAD
:1042500010B9002084F8440094F94500401C10B9BE
:10426000002084F84500FFF727FA05A901A800F00F
:1042700049F8F0B92046FEF7A9FDA0B104F12400E9
:104280000599FFF799FB2046FEF7E1FF00F008FBD8
:104290000028A3D14FF0805019490860BFF34F8F19
:1042A000BFF36F8F9AE72046FEF7D1FF00F0F8FAD0
:1042B00094E72046FEF7CBFF00F0F2FA2046FEF727
:1042C00085FD00288AD00020A8E700002E2E5C2E55
:1042D0002E5C4D6964646C6577617265735C4672CF
:1042E000656552544F535C71756575652E630000AA
:1042F0004572726F723A2025732C2025640D0A00D6
:1043000004ED00E070B506460C462EB940F6FD42BD
:104310001FA128A0FCF78EF82CB940F6FE421CA184
:1043200024A0FCF787F8FFF77BF92648026870683D
:10433000131A2548006890F8590030B1002022492E
:10434000096881F8590001251EE02068401C08B961
:10435000002519E01D4930680968884206D0706858
:10436000904203D80125002020600DE0206898428B
:1043700007D92068C01A20603046FFF70BFB0025E4
:1043800002E0002020600125FFF796F9284670BD65
:104390002E2E5C2E2E5C4D6964646C6577617265AF
:1043A000735C4672656552544F535C7461736B73F2
:1043B0002E6300004572726F723A2025732C2025FF
:1043C000640D0A0044000020300000205800002046
:1043D0002DE9FF4F85B0804689461746DDE912ABCF
:1043E000B800FEF77DFF064656B15C20FEF778FF69
:1043F00004460CB1266304E03046FFF79DF900E067
:1044000000247CB10020CDE900ABCDE902403A4662
:1044100049464046089BFEF7C3FB2046FEF718FAC4
:10442000012501E04FF0FF35284609B0BDE8F08FC7
:104430000549096809B9012005E00449096809B975
:10444000022000E0002070474C0000206C0000209B
:104450000149086870470000440000202DE9F04140
:104460004FF000085F48006800287DD15E48006872
:10447000451C5D480560002D1DD15C480068006842
:1044800008B9012000E0002028B940F6C72258A151
:1044900060A0FBF7CFFF55480768624800685349A2
:1044A00008606048076060480068401C5E4908601A
:1044B000FEF730FE00BF5D480068854277D300BF3D
:1044C0004A480068006808B9012000E0002020B1D7
:1044D0004FF0FF305549086068E044480068C06804
:1044E000C4686668B54202D2504806605EE0606902
:1044F000D4E902128A60D4E902214A60211D42688F
:104500008A4201D1E1684160002262610168491E6E
:104510000160A06A98B1A06AD4E907128A60D4E960
:1045200007214A6004F1180142688A4201D1216AD8
:1045300041600022A2620168491E016000BF94F838
:104540002C10012088403A4909680843384908601E
:10455000E16A01EB8101374A02EB81014868A06002
:104560008268E260211D00E033E082685160816072
:10457000E16A01EB81012F4A02EB81026261E16A8B
:1045800001EB81012B4A52F82110491CE26A02EB2F
:104590008202284B43F822102749E06A0968C96A59
:1045A00088428DD34FF001088AE700E000BF22481F
:1045B0000068C06A00EB80001E4951F82000012805
:1045C00001D94FF001081D48006808B14FF00108FB
:1045D00004E01B480068401C194908604046BDE8DB
:1045E000F08100006C000020440000203400002016
:1045F0002E2E5C2E2E5C4D6964646C65776172654D
:10460000735C4672656552544F535C7461736B738F
:104610002E6300004572726F723A2025732C20259C
:10462000640D0A00380000205800002060000020BF
:1046300048000020C002002030000020540000206C
:104640005000002070B505462C460026002D5ED097
:1046500030480068844201D1012000E0002028B9E0
:1046600041F24F022CA135A0FBF7E4FE206D28B9E2
:1046700041F2500228A131A0FBF7DCFE206D401E64
:104680002065E16CE06A884241D0206D00283ED16F
:10469000201DFEF787FF40B994F82C1001208840B8
:1046A0002A490968814329480160E06CE062E06AB8
:1046B000C0F12000A06194F82C100120884023490B
:1046C0000968084321490860E16A01EB8101204A39
:1046D00002EB81014868A0608268E260211D826867
:1046E00051608160E16A01EB8101194A02EB8102AC
:1046F0006261E16A01EB8101154A52F82110491CFF
:10470000E26A02EB8202124B43F822100126304685
:1047100070BD0000300000202E2E5C2E2E5C4D69F6
:1047200064646C6577617265735C4672656552544A
:104730004F535C7461736B732E6300004572726F2C
:10474000723A2025732C2025640D0A0048000020B1
:10475000C002002070B50646F068C4682CB940F667
:1047600082423CA144A0FBF765FEA06AD4E907128F
:104770008A60D4E907214A6004F1180142688A423C
:1047800001D1216A41600022A2620168491E0160D4
:104790003D48006800283DD16069D4E902128A6072
:1047A000D4E902214A60211D42688A4201D1E168B0
:1047B0004160002262610168491E016094F82C107A
:1047C0000120884031490968084330490860E16A9E
:1047D00001EB81012E4A02EB81014868A0608268EA
:1047E000E260211D826851608160E16A01EB810114
:1047F000274A02EB81026261E16A01EB8101244AEE
:1048000052F82110491CE26A02EB8202204B43F865
:10481000221010E01F494868E0618268226204F1BA
:1048200018018268516081601A4AA26211460968C3
:10483000491C116000BF1849E06A0968C96A8842CA
:1048400004D9012501201549086000E0002528460B
:1048500070BD00002E2E5C2E2E5C4D6964646C656C
:1048600077617265735C4672656552544F535C7430
:1048700061736B732E6300004572726F723A20256C
:10488000732C2025640D0A006C00002048000020D5
:10489000C0020020680500203000002054000020E5
:1048A00070B5002400265048006828B940F6B302CD
:1048B0004EA157A0FBF7BEFDFEF7B2FE4A480068C6
:1048C000401E494908600846006800287ED15448C7
:1048D000006800287AD05BE05248C068C468A06ACB
:1048E000D4E907128A60D4E907214A6004F118016B
:1048F00042688A4201D1216A41600022A2620168B5
:10490000491E01606069D4E902128A60D4E902217B
:104910004A60211D42688A4201D1E168416000225B
:1049200062610168491E016094F82C1001208840E2
:104930003D49096808433C490860E16A01EB81018F
:104940003A4A02EB81014868A0608268E260211D5A
:10495000826851608160E16A01EB8101334A02EBB8
:1049600081026261E16A01EB8101304A52F8211053
:10497000491CE26A02EB82022C4B43F822102C49BC
:10498000E06A0968C96A884202D30120294908609F
:104990002448006808B9012000E0002000289BD0CE
:1049A0000CB1FEF7B7FB2448056865B100BFFFF7FF
:1049B00055FD10B101201F4908606D1E002DF6D174
:1049C00000201D4908601B48006800E008E038B17D
:1049D0000126300719490860BFF34F8FBFF36F8F6F
:1049E000FEF76AFE304670BD6C0000202E2E5C2E55
:1049F0002E5C4D6964646C6577617265735C4672A8
:104A0000656552544F535C7461736B732E63000081
:104A10004572726F723A2025732C2025640D0A00AE
:104A2000400000206805002048000020C00200204F
:104A300030000020540000205000002004ED00E071
:104A40001CB50024FDF77AFF0B48006858B10B48ED
:104A50001F2100234FF48072CDE9001008A10A48FD
:104A6000FFF7B6FC04462CB940F2191207A110A0BA
:104A7000FBF7E0FC20461CBD780000207C000020F5
:104A8000546D722053766300353200082E2E5C2E52
:104A90002E5C4D6964646C6577617265735C467207
:104AA000656552544F535C74696D6572732E630073
:104AB0004572726F723A2025732C2025640D0A000E
:104AC0004FF04070E1EE100A704700000000000057
:104AD00000000102030406070809000000000102AB
:104AE00003040400000800000000000000020001B0
:104AF00000001000144B000800000020B00000006F
:104B0000C4010008C44B0008B00000208031000040
:104B1000E0010008000000000000000000000000AC
:104B200000000000000000000024F400000000006D
:104B30000000000000000000000000001000000065
:104B40000100000000000000000000000000000064
:104B50000000000000000000000000000000000055
:104B60000000000000000000000000000000000045
:104B70000000000000000000000000001F00000016
:104B80000000000000000000000000000000000025
:104B90000000000000000000000000000000000015
:104BA0000000000000000000000000000000000005
:104BB0000000000000000000AAAAAAAA000000004D
:044BC00000000000F1
:040000050800018965
:00000001FF
